:020000040000fa
:080000000002040000000000f2
:020000040000fa
:100400004f8020000e7f21000e01880000000000b8
:100410000c000700804b20000100200011000700a5
:10042000000020000000e000020032000000020096
:100430000000000012040200000000000040da008a
:100440000000fe004440a900400020000000e00041
:100450000300320000002000a00188004440a800f2
:100460000000060091018800800078000000eb0089
:1004700015003700e280400032a0b4009101ba00bc
:10048000e280400032a0b4009102ba00e280400055
:1004900032a0b4000002eb00472bde00f507b200eb
:1004a000602ce10004003a000059eb008301e900f0
:1004b000fdff3e00040037006128e100010032002a
:1004c0000082eb00040007001101ba000200e00006
:1004d000e8ff3a00000006003159ba008301e90044
:1004e0000c0032002159ba008301e90008003200f3
:1004f0000400e00003003a00e280400032a0b400b3
:10050000f5ff370011d9ba008301e900faff3a007c
:100510008100e800e180400032a0b4000000060045
:1005200033c2bf000004a2006100600000000600aa
:1005300031e2a90097c0a90097e0a90087c0a900ef
:1005400087e0a90000000600800078000001780024
:1005500030c2bf0066406000e64f500010003a0015
:100560000500370033c2bf000018a300fdff3a00aa
:10057000a21188008180e800110178000200e000eb
:10058000f8ff3a000000060033c2bf000018a300c5
:10059000fdff3a000100fb00a01188000201e80005
:1005a000924078000104e000f7ff3a0000000600e6
:1005b000614060004500dd0001742000914078003a
:1005c0000154a10080c070000100780040e7b7002e
:0405d0000000060021
:020000040000fa
:10000800a6040000760400007c04000082040000be
:1000180088040000a6040000a6040000a60400004e
:10002800a6040000a6040000be030000a40300000c
:10003800a6040000a6040000d2030000e6030000a6
:10004800a6040000a6040000a6040000a604000000
:10005800a6040000a6040000a6040000a6040000f0
:10006800a6040000a6040000a6040000a6040000e0
:10007800a6040000a6040000a6040000a6040000d0
:10008800a6040000a6040000a6040000a6040000c0
:10009800a6040000a6040000fa030000a60400005d
:1000a800a6040000a6040000a6040000a6040000a0
:1000b800a6040000a6040000a6040000a604000090
:1000c800a6040000a6040000a6040000a604000080
:1000d800a6040000a6040000a6040000a604000070
:1000e800a6040000a6040000a6040000a604000060
:1000f800a6040000a6040000a6040000a604000050
:10010800a6040000a6040000a6040000a60400003f
:10011800a6040000a6040000a6040000a60400002f
:10012800a6040000a6040000a6040000a60400001f
:10013800a6040000a6040000a6040000a60400000f
:10014800a6040000a6040000a6040000a6040000ff
:10015800a6040000a6040000a6040000a6040000ef
:10016800a6040000a6040000a6040000a6040000df
:10017800a6040000a6040000a6040000a6040000cf
:10018800a6040000a6040000a6040000a6040000bf
:10019800a6040000a6040000a6040000a6040000af
:1001a800a6040000a6040000a6040000a60400009f
:1001b800a6040000a6040000a6040000a60400008f
:1001c800a6040000a6040000a6040000a60400007f
:1001d800a6040000a6040000a6040000a60400006f
:1001e800a6040000a6040000a6040000a60400005f
:0801f800a6040000a6040000ab
:020000040000fa
:10020800a60400008e040000940400009a04000074
:10021800a0040000a6040000a6040000a604000034
:10022800a6040000a6040000be030000a40300000a
:10023800a6040000a6040000d2030000e6030000a4
:10024800a6040000a6040000a6040000a6040000fe
:10025800a6040000a6040000a6040000a6040000ee
:10026800a6040000a6040000a6040000a6040000de
:10027800a6040000a6040000a6040000a6040000ce
:10028800a6040000a6040000a6040000a6040000be
:10029800a6040000a6040000fa030000a60400005b
:1002a800a6040000a6040000a6040000a60400009e
:1002b800a6040000a6040000a6040000a60400008e
:1002c800a6040000a6040000a6040000a60400007e
:1002d800a6040000a6040000a6040000a60400006e
:1002e800a6040000a6040000a6040000a60400005e
:1002f800a6040000a6040000a6040000a60400004e
:10030800a6040000a6040000a6040000a60400003d
:10031800a6040000a6040000a6040000a60400002d
:10032800a6040000a6040000a6040000a60400001d
:10033800a6040000a6040000a6040000a60400000d
:10034800a6040000a6040000a6040000a6040000fd
:10035800a6040000a6040000a6040000a6040000ed
:10036800a6040000a6040000a6040000a6040000dd
:10037800a6040000a6040000a6040000a6040000cd
:10038800a6040000a6040000a6040000a6040000bd
:10039800a6040000a6040000a6040000a6040000ad
:1003a800a6040000a6040000a6040000a60400009d
:1003b800a6040000a6040000a6040000a60400008d
:1003c800a6040000a6040000a6040000a60400007d
:1003d800a6040000a6040000a6040000a60400006d
:1003e800a6040000a6040000a6040000a60400005d
:0803f800a6040000a6040000a9
:020000040000fa
:0805d4003530000000000000ba
:020000040000fa
:1005dc000000fa000000eb00f2ff0700616a200047
:1005ec009140780000ceb30000c06000c040b30062
:1005fc00a6e6b700716a20009140780000ceb300e7
:10060c0000c060007040b300a7e6b700d16c2000ba
:10061c009140780000ceb30000c060005040b300a1
:10062c00cde6b700616c20009140780000ceb3009d
:10063c0000c060006040b300c6e6b700216c20002b
:10064c009140780000ceb30000c060002041b300a0
:10065c00c2e6b700316c20009140780000ceb300a8
:10066c0000c060003041b300c3e6b700adff070027
:10067c000000eb00200888000000eb000008880058
:10068c00000a200010088800510a200091407800d0
:10069c00f0c8b30000c0600001c4b300014070009a
:1006ac00a5e0b7008460a9009460a80005e1a8004b
:1006bc000000eb00800888000000eb003008880088
:1006cc00300620006008880090012000c0118800ce
:1006dc000000eb00901188000000280080118800b9
:1006ec003342a8009560a8000000eb00200c8800a5
:1006fc0050002000200c880030032000100c8800d3
:10070c0030062000000c88000000eb00200c880054
:10071c000000eb00500c880050002000500c8800aa
:10072c0000012000400c880030062000300c8800ae
:10073c0011e1a8000080fa0000000600801f78007c
:10074c003400f80000002000a00188000000fa002e
:10075c008460a900004080000000e8000040880090
:10076c000080fa003400f9004f00780000400600c9
:10077c003400f800881f780008002000a8018800c9
:10078c004f0478000000fa008440a9000080fa00b1
:10079c003400f900004006003400f800881f78008f
:1007ac0008002000a80188004f0478000000fa001f
:1007bc0084c0a9000080fa003400f9000040060053
:1007cc003400f800881f780008002000a801880079
:1007dc004f0478000000fa008460a9000080fa0041
:1007ec003400f90000400600801f78003400f80047
:1007fc0000002000a00188000000fa0087c0a900ba
:10080c0010032000104088000080fa003400f9002a
:10081c004f007800004006000400fa00000320009e
:10082c001007980000032000000f78004600070016
:10083c0067ff070000003700014080001013230001
:10084c00808f50000d003a00000320009e0f100016
:10085c000a003a0010032000000f78002dff07005b
:10086c000000e000fdff3a00a02e280033ff070037
:10087c0028ff07000000e000fdff3a000140800067
:10088c0000232300808f500008003a009e00900047
:10089c0000032000808f500004003a001003200059
:1008ac001007980050002000200c880001408000a8
:1008bc0050232300808f5000dfff3a000000eb0034
:1008cc00004088000003200010079800000320005f
:1008dc00000f78000000eb00200c8800d6ff3700da
:1008ec000000fa008020a900ffff37000000fa008a
:1008fc008060a900ffff37000000fa008040a900cb
:10090c00ffff37000000fa008080a900ffff3700ce
:10091c000000fa008020a900ffff37000000fa0059
:10092c008060a900ffff37000000fa008040a9009a
:10093c00ffff37000000fa008080a900ffff37009e
:10094c000000fa00ffff37000000fa00002c220024
:10095c00103a88000000eb00203a88000080fa0072
:04096c000000060081
:020000040000fa
:100970000008000004000000020000000000000069
:0809800000000000000000006f
:00000001FF
